:020000040800F2
:100000005014002099010008AD110008A911000842
:10001000AB1100087D02000829160008000000004E
:1000200000000000000000000000000001010008C6
:100030007F02000800000000450100085513000879
:10004000B3010008B3010008B3010008B3010008C0
:10005000B3010008B3010008B3010008B3010008B0
:10006000B3010008B3010008B3010008B3010008A0
:10007000B3010008B3010008B3010008B301000890
:10008000B3010008B3010008B3010008B301000880
:10009000B3010008B3010008B3010008B301000870
:1000A000B3010008D1130008B3010008B301000830
:1000B000B3010008B3010008B3010008B301000850
:1000C000B3010008B3010008B3010008B301000840
:1000D000B3010008B3010008B30100081D160008B1
:1000E000B3010008B3010008B3010008DFF80CD029
:1000F00000F0B2F800480047F5170008501400203F
:10010000224B19680868B0E8F00F80F30988BFF344
:100110006F8F4FF0000080F311884EF00D0E704786
:100120000000000006480068006880F3088862B696
:1001300061B6BFF34F8FBFF36F8F00DF00BF00BF0B
:1001400008ED00E0EFF30980BFF36F8F0F4B1A68E3
:1001500020E9F00F106008B54FF0500080F31188CF
:10016000BFF34F8FBFF36F8F02F014F84FF0000012
:1001700080F31188BDE8084019680868B0E8F00FFE
:1001800080F30988BFF36F8F704700BF2400002001
:10019000EFF3058070470000064880470648004797
:1001A000FEE7FEE7FEE7FEE7FEE7FEE7FEE7FEE727
:1001B000FEE7FEE7CD130008ED00000840EA01036A
:1001C0009B0703D009E008C9121F08C0042AFAD20D
:1001D00003E011F8013B00F8013B521EF9D27047D1
:1001E000D2B201E000F8012B491EFBD27047002279
:1001F000F6E710B513460A4604461946FFF7F0FF26
:10020000204610BD421E12F8013F002BFBD111F811
:10021000013B02F8013B002BF9D17047421C10F85A
:10022000011B0029FBD1801A704730B50B460146EF
:1002300000202022012409E021FA02F59D4205D385
:1002400003FA02F5491B04FA02F52844151EA2F12F
:100250000102F1DC30BD0000064C074D06E0E0680D
:1002600040F0010394E8070098471034AC42F6D3FD
:10027000FFF740FF042D0008242D0008FEE770471B
:1002800010B590F821100024022903D004218163C5
:1002900001243DE001680A6822F00E020A6001684C
:1002A0000A6822F001020A601A4A0168914201D1EB
:1002B000012121E0174A1432914201D110211BE0A3
:1002C000144A2832914201D1891515E0114A3C3275
:1002D000914201D189140FE00E4A5032914202D16D
:1002E0004FF4803108E00B4A6432914202D14FF45E
:1002F000801101E04FF08071064A083A51600121F7
:1003000080F82110002180F82010416B01B188474E
:10031000204610BD080002402DE9F84FDFF8B891E3
:10032000002409F1040A0AF1040B23460F270BF1FC
:10033000040EC9E00125A5402A40AA427DD1674E9E
:10034000D1F804C0ACEB0608B44532D014DCBCF1E3
:10035000030F3AD009DCBCF1000F2AD0BCF1010F29
:100360001CD0BCF1020F31D11DE0BCF1110F17D030
:10037000BCF1120F2AD119E0B8F5881F19D006DC9C
:10038000B8F5803F15D0B8F5801F1FD111E0B8F542
:10039000001F0ED0B8F5041F18D10AE0CB6815E095
:1003A000CB681B1D12E0CB6808330FE0CB680C3321
:1003B0000CE08B682BB1012B4FF0080303D0456193
:1003C00004E0042302E0056100E00023FF2A01D8D5
:1003D000064601E000F104064FEA840501D9A5F1C3
:1003E0002005D6F8008007FA05FC28EA0C0803FA75
:1003F00005F548EA0508C6F800804D68ED0062D5AD
:10040000374DAE6946F00106AE61AD6924F00306D2
:1004100005F001050095334D06EB050CDCF808509E
:10042000A607360F07FA06F825EA0805DFF8B880B0
:10043000404503D14FF0000817E044E0DFF8AC80FE
:10044000404502D14FF001080FE0DFF8A48040459D
:1004500002D14FF0020808E0DFF89880404502D151
:100460004FF0030801E04FF0040808FA06F848EAE4
:100470000508CCF808804D68D9F80060ED034D46BA
:1004800001D5164300E096432E604D68DAF800600F
:10049000AD03554601D5164300E096432E604D68E6
:1004A000DBF80060ED025D4601D5164300E096439F
:1004B0002E604D68DEF80060AD02754601D516432A
:1004C00000E096432E60641C0D682A46E5407FF4E8
:1004D00031AFBDE8F88F00000004014000001110AA
:1004E000001002400000014000080140000C0140E3
:1004F000001001400014014001488068704700006E
:10050000140000200248816802781144816070471D
:1005100014000020074810B5016841F01001016087
:10052000032000F095F8002000F006F800F03EF8F7
:10053000002010BD0020024000B5014687B0002217
:10054000192000F065F8192000F054F8134881696B
:1005500041F400618161806905A900F400600690A2
:10056000684600F01DF900F04BF90D490D4AB0FB4B
:10057000F1F10D48491E0260416040F2E73200216E
:10058000C0E90321816000F013FB10B1012007B026
:1005900000BD054800F03AFBF9E7000000100240FA
:1005A00040420F00002C0140180300200F4808B5FE
:1005B000816941F001018161816901F001010091CE
:1005C000C16941F08051C161C069002200F08050D2
:1005D00000900F21901E00F01BF80548416821F0A3
:1005E000E06141F00071416008BD00000010024070
:1005F00000000140002809DB00F01F0201219140AA
:100600004009800000F1E020C0F8001170470000B0
:10061000F0B40E4B1B680C46C3F30223C3F107056D
:10062000042D00D90425191D072901D2002300E05B
:10063000DB1E012606FA05F1491E214099409E4025
:10064000761E16403143F0BC01F004B80CED00E01A
:10065000064900F0070208684FF6FF03184040EA19
:100660000220034A10430860704700000CED00E0D0
:100670000000FA052DE9F0470F46050061D0434E12
:10068000306800F00700B84209D2306820F0070057
:1006900038433060306800F00700B84251D1286814
:1006A0003B4C810712D5400703D5606840F4E060F9
:1006B00060602878000703D5606840F4605060608F
:1006C0006068A96820F0F000084360602878C007DF
:1006D00028D06868012810D02168022810D0890726
:1006E00000292EDA616821F0030101436160FFF700
:1006F00003FF804641F288390DE021688903EFE766
:100700008901EDE7FFF7F8FEA0EB0801494502D9A2
:100710000320BDE8F0876068696800F00C00B0EB6A
:10072000810FEFD1306800F00700B8420BD9306874
:1007300020F0070038433060306800F00700B8420E
:1007400001D00120E5E72878400705D56068E96811
:1007500020F4E060084360602878000706D56068F0
:10076000296920F4605040EAC100606000F058F848
:100770006168084AC1F30311515CC840064908602A
:1007800006480068FFF7D8FE0020C2E700200240BC
:1007900000100240EC2C000820000020180000206F
:1007A0000F2202600C4A536803F00303436053684E
:1007B00003F0F0038360536803F4E063C36052689E
:1007C0004FF4E06303EAD20202610448006800F0DB
:1007D000070008607047000000100240002002403F
:1007E0000448054900684968044AC1F30221515C84
:1007F000C84070472000002000100240FC2C000878
:100800000448054900684968044AC1F3C221515CA3
:10081000C84070472000002000100240FC2C000857
:1008200012A185B00FC98DE80F0014A0144A00680A
:1008300004905168134801F00C03042B10D0082BCE
:100840000ED1C1F38343C9031DF803000AD55168D3
:1008500004AAC1F34041515C0A4A5043B0FBF1F095
:1008600005B0704708494843FAE700000203040551
:10087000060708090A0B0C0D0E0F101001020000EC
:100880000010024000127A0000093D002DE9F84FE7
:10089000040070D02078C04DC00749D06868C0F30C
:1008A0008100012807D06868C0F38100022809D1BF
:1008B0006868C00306D52868800339D560680028B9
:1008C000E7D035E06068B0F5803F0BD010B1B0F5EF
:1008D000A02F11D0286820F480302860286820F4E8
:1008E000802002E0286840F480302860606890B181
:1008F000FFF702FE06460AE0286840F480202860E0
:10090000F0E700BFFFF7F8FD801B642873D8286864
:100910008003F7D50CE0FFF7EFFD064605E000BFCA
:10092000FFF7EAFD801B6428F0D828688003F7D41D
:1009300020789A4E80074FF001094FF0000839D512
:10094000686810F00C0F07D06868C0F381000228B7
:1009500009D16868C00306D42868800714D52069C7
:10096000012808D110E02069B0B1C6F80090FFF767
:10097000C3FD074605E00AE1FFF7BEFDC01B0228E4
:10098000C4D828688007F7D52868616920F0F80086
:1009900040EAC10028600DE0C6F80080FFF7ACFD1A
:1009A000074604E0FFF7A8FDC01B022823D82868EB
:1009B0008007F7D4207800072CD57948A169D9B1F0
:1009C000C0F80090FFF798FD074604E0FFF794FD9C
:1009D000C01B02280FD8686A8007F7D571484FF40A
:1009E000FA510068B0FBF1F0009000BF0098411E82
:1009F0000091FAD20EE080E0C0F80080FFF77CFDA5
:100A0000074604E0FFF778FDC01B022875D8686A26
:100A10008007F7D42078400760D5E8690027C00038
:100A200008D4E86940F08050E861E869012700F0E7
:100A3000805000905C480168C90513D40168834662
:100A400041F480710160FFF757FD824606E000BF68
:100A5000FFF752FDA0EB0A0064284ED8DBF8000037
:100A6000C005F5D5E06801280AD008B1052813D0E3
:100A7000286A20F001002862286A20F0040002E0C1
:100A8000286A40F001002862E06841F2883B98B192
:100A9000FFF732FD82460BE0286A40F0040028622E
:100AA000EEE700BFFFF728FDA0EB0A0159455AD831
:100AB000286A8007F6D50CE0FFF71EFD824605E0A8
:100AC000FFF71AFDA0EB0A0159454CD8286A8007A8
:100AD000F6D41FB1E86920F08050E861E06988B37E
:100AE0006968C1F38101022944D00228C6F86080F8
:100AF00004D0FFF701FD044638E034E0FFF7FCFCCA
:100B0000074604E0FFF7F8FCC01B02282BD8286832
:100B10008001F7D4206AB0F5803F05D16868A168EC
:100B200020F4003008436860D4E90801084369688C
:100B300021F4741108436860C6F86090FFF7DCFC8C
:100B4000044606E025E000BFFFF7D6FC001B0228A4
:100B500009D828688001F7D51BE000BFFFF7CCFC5F
:100B6000001B022802D90320BDE8F88F2868800105
:100B7000F4D40EE00128F7D06868226A00F48031CE
:100B8000914204D1616A00F47010884201D00120C2
:100B9000EAE70020E8E700000010024000004242BF
:100BA00080044242200000200070004070477047DF
:100BB00010B5040003D094F83D0010B107E0012007
:100BC00010BD002084F83C00204600F01EF80220F2
:100BD00084F83D00211D206800F000FC012084F80D
:100BE000460084F83E0084F83F0084F8400084F812
:100BF000410084F8420084F8430084F8440084F8FB
:100C0000450084F83D00002010BD704790F83D106D
:100C1000012901D001207047022180F83D100168B0
:100C2000CA6842F00102CA6000680B49884208D0D5
:100C3000B0F1804F05D00949884202D00849884266
:100C400004D1816801F00701062903D0016841F051
:100C50000101016000207047002C014000040040A9
:100C600000080040704770B50446006801694FF005
:100C70000005C943890715D4C168C943890711D440
:100C8000E91E0161012020772068806980072046E5
:100C900002D0FFF7E7FF04E000F098F8204600F0EC
:100CA00096F8257720680169C943490717D4C168B8
:100CB000C943490713D46FF0040101610220207772
:100CC0002068806910F4407F204602D0FFF7CAFFF9
:100CD00004E000F07BF8204600F079F825772068E2
:100CE0000169C943090716D4C168C943090712D469
:100CF0006FF008010161042020772068C069800737
:100D0000204602D0FFF7AEFF04E000F05FF8204677
:100D100000F05DF8257720680169C943C90617D43A
:100D2000C168C943C90613D46FF0100101610820DE
:100D300020772068C06910F4407F204602D0FFF77A
:100D400091FF04E000F042F8204600F040F82577DB
:100D500020680169C943C90708D1C168C943C907E7
:100D600004D1891E0161204600F032F82068016933
:100D7000C943090609D4C168C943090605D46FF0FF
:100D8000800101612046FFF711FF20680169C94316
:100D9000490609D4C168C943490605D46FF040012A
:100DA0000161204600F01EF820680169C9438906E8
:100DB0000BD4C168C943890607D46FF020010161D3
:100DC0002046BDE87040FFF7F2BE70BD7047704727
:100DD00000680349884201D1FFF794BB70470000C7
:100DE000002C01407047704770B5026804461068D7
:100DF000D168536910F00F0F52D003F0010501F4D0
:100E000090762E435FD0C20705D0CA0503D5E26BAA
:100E100042F00102E263420705D5DA0703D0E26B34
:100E200042F00202E263820705D5DA0703D0E26BE3
:100E300042F00402E263020707D501F020022A43D0
:100E400003D0E26B42F00802E263E26B002A33D087
:100E5000800604D5880602D5204600F00BFB2068EA
:100E60004069E16BC0F38010090700D428B3204625
:100E700000F0F2FA2068416949061AD5416921F06B
:100E800040014161606BA0B12D494163606BFFF788
:100E9000F7F9002810D0606B416BBDE8704008473F
:100EA000830610D58B060ED52046BDE8704000F0B5
:100EB000E1BA2046FFF797FF70BD2046FFF793FF8A
:100EC0000020E06370BD03062BD50B0629D594F8EE
:100ED00039002128F6D1A068B0F5805F01D12069E2
:100EE000B0B1206A411C2162216800784860E08C22
:100EF000401E0004000CE084E4D12068C16821F0A9
:100F00008001C1602068C16841F04001C16070BDCE
:100F1000206A0088C0F308005060206A801C2062AC
:100F2000E5E74006F3D54806F1D5D168204621F023
:100F30004001D160202184F8391000F034F970BDEF
:100F40004914000870B5040004D094F83900002555
:100F500010B106E0012070BD84F83850204600F042
:100F600023F8242084F839002068C16821F4005156
:100F7000C160204600F0C4FA2068016921F4904164
:100F800001612068416921F02A0141612068C1683E
:100F900041F40051C160E563202084F8390084F8F1
:100FA0003A00002070BD000030B585B000240094E8
:100FB0000194029403940068184988422CD118487F
:100FC000C16941F48021C161C16901F480210491AA
:100FD000816941F0080181618069124D00F00800CB
:100FE00004904FF480600090022001900320039051
:100FF00069462846FFF790F9E814CDE900046946F0
:1010000028460294FFF788F9002205212720FFF7E0
:10101000FFFA2720FFF7EEFA05B030BD0048004088
:1010200000100240000C014090F83A30202B22D1F1
:10103000F9B1F2B190F83830012B1CD08162828571
:10104000C2850021C163222280F83A2080F838103E
:101050000168CA6842F48072CA6001684A6942F055
:1010600001024A610068C16841F02001C1600020AE
:1010700070470120704702207047000038B50122F8
:1010800013491448FFF7D0FF114C207872281ED165
:101090000020009001236A46211D206901F014FA06
:1010A000012809D14FF4FA7314220BA1094800F06A
:1010B00021F86068401E60600098002807D00C4945
:1010C0004FF080500860BFF34F8FBFF36F8F38BD74
:1010D0000000002084000020477569206475206CA2
:1010E000696575207475204953520A0D000000008F
:1010F00004ED00E02DE9F843044690F839001F465E
:1011000016460D4620284CD1C5B1BEB194F8380022
:10111000012846D0012084F838004FF00008C4F8B8
:101120003C80212084F83900FFF7E6F9A684814647
:10113000E684A068B0F5805F03D004E00120BDE83C
:10114000F883206928B12E465FF0000584F83880C6
:101150000EE00026FAE78021204600F02DFAA0B923
:10116000AEB116F8010B21684860E08C401EE084A7
:10117000E08C4B464FF0000200970028EBD14FF077
:101180004001204600F018FA30B10320D7E735F8C7
:10119000020BC0F30800E6E7202084F839000020A5
:1011A000CDE70220CBE77047FEE7FEE7704700007F
:1011B000A2B000204FF4FA75164C461E6F00219025
:1011C0002A4621A9206901F0DDF901284FF06402C7
:1011D00010D011496846FEF7F1FF6846FFF71EF888
:1011E00082B2334669460D48FFF784FF384600F067
:1011F00047FFE5E7084968466439FEF7DFFF08A1C5
:1012000019A8219A00F012FA19A96846FEF7FAFF08
:10121000E3E7000000000020882C00088400002084
:1012200047696120747269206E68616E2064756F11
:1012300063206C613A2025640D000000A2B00020FC
:101240004FF4FA75184C461EAF00219000232A4631
:1012500021A9206901F088F801284FF0640213D019
:1012600012496846FEF7AAFF6846FEF7D7FF82B22A
:10127000334669460E48FFF73DFF2198401C2190F8
:10128000384600F0FDFEE1E7084968466439FEF79C
:1012900095FF08A119A8219A00F0C8F919A9684674
:1012A000FEF7B0FFE0E7000000000020F82A000889
:1012B0008400002047696120747269206775692085
:1012C0006C613A2025640D00A2B064204FF4FA75D9
:1012D000184C4FF0FF36AF00219000232A4621A979
:1012E000206901F041F801284FF0640213D012493F
:1012F0006846FEF763FF6846FEF790FF82B233460A
:1013000069460E48FFF7F6FE2198401E21903846A8
:1013100000F0B6FEE1E7084968466439FEF74EFF83
:1013200007A119A8219A00F081F919A96846FEF7CA
:1013300069FFE0E700000020C02B000884000020C7
:101340004769612074726920677569206C613A2071
:1013500025640D0010B5502080F31188BFF34F8F26
:10136000BFF36F8F01F04AFA18B104494FF0805073
:101370000860002080F3118810BD000004ED00E03B
:1013800030B58FB028216846FEF731FF14210AA836
:10139000FEF72DFF022401200490009410200590F8
:1013A00000254FF46010CDE9085007946846FFF718
:1013B0006DFA0AA90F2081E831006002CDE90D0520
:1013C00002210AA8FFF756F90FB030BD70470000A0
:1013D0000148FFF748BC000018030020F0B5026880
:1013E000164B174C174D4FF08047984205D0B84226
:1013F00003D0A04201D0A84203D122F070064A686F
:101400003243984205D0B84203D0A04201D0A8424E
:1014100003D122F44074CA6822434C6922F080024E
:10142000224302608A68C2620A688262984201D1DD
:101430000969016301214161F0BD0000002C0140F8
:10144000000400400008004010B5406A0021C1853A
:10145000C184FFF7C8FC10BD0168CA6822F490720D
:10146000CA6001684A6922F001024A61202180F8BD
:101470003A10704710B590F83A10222901D0022096
:1014800010BD82684FF480539A4201D1016921B1A5
:10149000816A9A421BD04AB10AE00268816A5268A6
:1014A000C2F308020A80816A891C08E0026972B1ED
:1014B0000268526802F07F020A70816A491C8162E8
:1014C000C18D491E0904090CC18503D016E00268CC
:1014D0005268F1E70168CA6822F02002CA60016818
:1014E000CA6822F48072CA6001684A6922F0010267
:1014F0004A61202180F83A10FFF7C0FD002010BD9E
:1015000070B5044600680169E26821F44051114356
:1015100001612169A0680843616908432168CA68BC
:1015200041F20C639A430243CA6020684169A26990
:1015300021F44071114341611E492068884202D163
:10154000FFF75EF901E0FFF74BF900EBC00101EB9B
:101550000012606864218000B2FBF0F3B3FBF1F38A
:101560006FF018067343B2FBF0F5B2FBF0F605EB33
:101570008305322303EB0515B5FBF1F5B6FBF1F658
:1015800005F0F00505EB0615B2FBF0F6B2FBF0F046
:10159000B0FBF1F06FF01802504306EB800003EB54
:1015A0000010B0FBF1F0216800F00F0028448860C3
:1015B00070BD0000003801402DE9F0419846174603
:1015C0000E460446069D1DE0681C1BD02DB1FEF79B
:1015D00093FFA0EB0800A84214D92068C16821F449
:1015E000D071C1602068416921F001014161202072
:1015F00084F8390084F83A00002084F83800032089
:10160000BDE8F0812068006836EA000004D00020C0
:10161000B842D9D00020F3E70120F9E70148FFF7ED
:10162000E3BB000084000020FEE700000FB4084B7D
:1016300010B504A902AA039800F02CF8044602A9E8
:10164000002000F0D1F8204610BC5DF814FB00002B
:10165000E91700080907090E002804DB00F1E02063
:1016600080F80014704700F00F0000F1E02080F8CF
:10167000141D704702E008C8121F08C1002AFAD1E1
:1016800070477047002001E001C1121F002AFBD102
:10169000704700002DE9FF4F89B09B4604460025A6
:1016A00006E025280BD05A460B999047641C6D1C08
:1016B00020780028F5D10DB02846BDE8F08F00272E
:1016C000B8460122474900E0074314F8013F203B98
:1016D00002FA03F00842F7D120782E2819D114F825
:1016E000010F47F004072A280ED06FF02F02207850
:1016F000A0F1300109290CD808EB880102EB410167
:1017000000EB0108641CF2E70A98641C50F8048B93
:101710000A9020780028CED0642808D0692806D006
:1017200075281ED05A460B9990476D1C58E00A99AF
:101730004FF00A0901C90A91002802DA40422D211E
:1017400002E0390504D52B218DF82010012103E09A
:10175000F90704D02021F7E78A4608AE0DE0002102
:10176000FAE70A994FF00A0901C90A91F7E74946D1
:10177000FEF75BFD303106F8011D0028F7D1ADEB17
:10178000060000F12009780701D44FF00108C84590
:1017900002DDA8EB090000E000208046002706E0FB
:1017A00008A85A46C05D0B9990476D1C7F1C574591
:1017B000F6DB04E030205A460B9990476D1CB8F1D7
:1017C0000001A8F10108F5DC05E016F8010B5A4606
:1017D0000B9990476D1CB9F10001A9F10109F4DCE6
:1017E000641C65E7092801000A68531C0B6010702F
:1017F000704700007CB5FEF78DFEFFF7C1FD2D4858
:10180000816941F008018161816901F0080100915D
:10181000816941F0040181618069274900F0040079
:1018200000902648002401604FF41651C0E90114CD
:101830000C21C460C0E904418461C461FFF782FBEC
:1018400001221F491D48FFF7EFFB0022042105205C
:1018500000F022FD1A4900284FF0640308614FF0A0
:10186000150225D017A11548FFF744FC14490220A2
:101870000831CDE900010023802218A11B4800F0A7
:1018800057FF0F4D01200C35CDE9000500238022C4
:1018900017A11B4800F04CFF0023802219A11E480D
:1018A000CDE9004500F044FF00F036FC00207CBD8F
:1018B0001AA1D8E700100240004800408400002030
:1018C0000000002054616F205175657565207468B3
:1018D000616E6820636F6E670A0D000053656E6469
:1018E000657220485054205461736B003D1200080B
:1018F00053656E646572204D5054205461736B00C3
:10190000C91200085265636569766572204C5054AF
:10191000205461736B000000B11100084B686F6EBA
:1019200067207468652074616F2051756575650A5C
:101930000D0000002DE9F041184C0F460546666980
:101940002068001D00F0AEFA38B9206890F82C101D
:1019500001208840A1698143A161681C07D137B18A
:101960002168BDE8F0410E48091D00F0DFBA20688B
:101970003544B5424560216805D2A068BDE8F04114
:10198000091D00F0BBBA6068091D00F0B7FA206BB2
:10199000854200D22563BDE8F081000024000020CC
:1019A0003C0400202DE9F041054600F0CBFA2E4C16
:1019B0002069401C206120682C4F10B1E06940B3C1
:1019C0002DE025602069012829D1002606EB86003C
:1019D00007EB800000F084FA761C072EF6D323482C
:1019E0008C3000F07DFA2148A03000F079FA1F48D1
:1019F000B43000F075FA1D48C83000F071FA1B4889
:101A0000DC3000F06DFA19488C3060601430A06052
:101A100005E02068E96AC06A884200D82560E06A6B
:101A2000401CE062E96A0120A26988401043A0617D
:101A300001EB810007EB8000291D00F077FA00F030
:101A4000A1FAE06900280CD02068E96AC06A8842DF
:101A500007D207494FF080500860BFF34F8FBFF3A4
:101A60006F8FBDE8F081000024000020600300209B
:101A700004ED00E030B4026C0B46002A0BD0C168C4
:101A80001144C1604468A14201D30168C16030BC07
:101A90001846FEF793BB30BC70472DE9F041856BCB
:101AA000174604460026026C82B1C7B1E068FEF713
:101AB00085FBE168206C091AE1602268914202D23C
:101AC0006168081AE060022F16D017E02068A8B9F4
:101AD000606800F0F7FE0646002060600EE0A06837
:101AE000FEF76CFB216CA0680844A0606168884226
:101AF00004D32068A06001E005B16D1E6D1CA563D4
:101B00003046BDE8F08110B5044690F8510058B158
:101B100001280CD002280FD0502080F31188BFF389
:101B20004F8FBFF36F8FFEE7206B00F03FFA204628
:101B3000BDE8104000F03ABA10BD000010484FF464
:101B40004061420706D0C01D0D4920F00700411A30
:101B5000C1F540610B4A00230144C2E90003083982
:101B6000103A21F0070111604B600B600B1AC0E9BD
:101B7000001393604FF000405360D0607047000046
:101B80005004002070000020144E154CA6F1C80728
:101B90004FF08058DFF84C9012E000BF00F0D2F90F
:101BA000F068C568281D00F07DF92069401E20619D
:101BB000E068401EE06000F0E5F92846FFF7A3FF6B
:101BC000E0680028EAD138680128F9D9C9F800800E
:101BD000BFF34F8FBFF36F8FF2E7000028040020A0
:101BE0002400002004ED00E00346009829B10260C3
:101BF000C0E90F31012100F073BB0060F8E72DE967
:101C0000F0479A46DDE9098481466FF00303206BB3
:101C100003EB82021044089D20F00706700707D0EE
:101C2000502080F31188BFF34F8FBFF36F8FFEE713
:101C300023180A5C83F834200A5C12B1401C102877
:101C4000F6D3002784F84370072D00D30625E562FC
:101C5000C4E91157201D00F04EF904F1180000F0FE
:101C60004AF92461C5F107006462A061E76484F861
:101C7000507052464946304600F002F92060B8F1F3
:101C8000000F01D0C8F80040BDE8F08730B5114919
:101C900000E011460A688242FBD34B685C1884421C
:101CA00003D1406818444860084643681C189442B1
:101CB00009D1084C103C2468A24209D052681A4449
:101CC00042600A6812680260814200D0086030BD3C
:101CD0000460F9E77000002010B5044600F032F906
:101CE000A06B28B15FF0000400F04CF9204610BD55
:101CF0000124F9E706484168096829B14168C968C3
:101D0000C9684968016370474FF0FF31FAE7000086
:101D10002400002008484068401C4FF0500080F329
:101D2000118804D0BFF34F8FBFF36F8FFEE7BFF36F
:101D30004F8FBFF36F8FFEE7780000202DE9F04151
:101D4000044600F0FFF894F9455004F1240609E038
:101D5000606A48B1304600F001FE08B100F0BEF9FB
:101D60006D1E6DB2002DF3DC4FF0FF3684F8456038
:101D700000F008F900F0E6F894F9445004F1100777
:101D800009E0206948B1384600F0E8FD08B100F0EC
:101D9000A5F96D1E6DB2002DF3DC84F84460BDE83A
:101DA000F04100F0EFB800002DE9F04105460027B2
:101DB00000F0E8F9314E306808B9FFF7BFFEF0686F
:101DC00005424BD1C5B3083568070ED005F00700B2
:101DD000C0F108000544680707D0502080F311883F
:101DE000BFF34F8FBFF36F8FFEE72DB3706885424F
:101DF00034D82248103001460C6801E020460C46D9
:101E00006168A94202D221680029F7D131688C4269
:101E100024D007682168016060680837411B1029D9
:101E20000FD96019420708D0502080F31188BFF302
:101E30004F8FBFF36F8FFEE710E041606560FFF7E3
:101E400025FF61687068401A7060B268904200D2E5
:101E5000B060F06801430020C4E9000100F0B8FD63
:101E6000780707D0502080F31188BFF34F8FBFF35E
:101E70006F8FFEE73846BDE8F0810000600000206B
:101E800010B5031F4FF080741C601B1F21F001016F
:101E90001960191F024B0B60143940380A6010BDDD
:101EA000151D0008D0E9013201699A60D0E90123CB
:101EB0005A604A68824201D182684A600022026107
:101EC0000868401E0860086870470000034B036004
:101ED00003F154000860802010607047C4000020A7
:101EE00000F108014FF0FF32C0E90112C160016149
:101EF00000210160704700210161704730B50B6817
:101F00005A1C02D000F1080202E0026904E02246F5
:101F1000546825689D42FAD953684B6099608A607D
:101F2000516008610168491C016030BD42684A6027
:101F300093688B6093685960916008610168491CDF
:101F400001607047502080F31188BFF34F8FBFF3BB
:101F50006F8F0A494868401C486001280CD1084826
:101F6000006810F0FF0F07D0502080F31188BFF3F6
:101F70004F8FBFF36F8FFEE770470000780000209F
:101F800004ED00E00849486828B1401E486001D1CE
:101F900080F311887047502080F31188BFF34F8F72
:101FA000BFF36F8FFEE700007800002070B50028B7
:101FB00027D0144DA0F108046168E868014207D1F8
:101FC000502080F31188BFF34F8FBFF36F8FFEE770
:101FD00022683AB1502080F31188BFF34F8FBFF3CE
:101FE0006F8FFEE78143616000F0CCF8606869683C
:101FF000084468602046FFF749FEBDE8704000F0E5
:10200000E7BC70BD600000204FF0E02000210161BE
:10201000816105494FF47A720968B1FBF2F1491EFA
:1020200041610721016170472000002010B5FEF7D3
:10203000AFF8114910280ED300F1E02090F8F0031A
:102040000A78904207D2502080F31188BFF34F8F57
:10205000BFF36F8FFEE709480068896800F4E0600D
:10206000884207D9502080F31188BFF34F8FBFF308
:102070006F8FFEE710BD0000780000200CED00E03F
:1020800010B5020014D00F48806B38B1502080F397
:102090001188BFF34F8FBFF36F8FFEE700F072F828
:1020A00000211046FFF746FC00F092FC002807D103
:1020B00005494FF080500860BFF34F8FBFF36F8F1B
:1020C00010BD00002400002004ED00E002498A6AEF
:1020D00002604969416070472400002001490120E5
:1020E000486270472400002010B50C4650B10949E1
:1020F00009681831FFF702FF2046BDE810400121B2
:10210000FFF718BC502080F31188BFF34F8FBFF347
:102110006F8FFEE72400002010B586B000240394E2
:1021200005AA04A903A80494FFF7D0FEDDE9030182
:102130000094CDE9011000230EA11048059A00F08B
:1021400024FB0F490028486311D0502080F31188E8
:10215000BFF34F8FBFF36F8F4FF0FF300863012045
:10216000C8614C6106B0BDE8104000F041B806B04F
:1021700010BD000049444C4500000000891B0008C8
:10218000240000200248816B491C816370470000D5
:10219000240000201448816B11B101214162704775
:1021A000002141628169B1FA81F1C1F11F0101EBA6
:1021B00081020E4951F822306BB101EB820101F12D
:1021C00008034A6852684A609A4201D152684A60DC
:1021D000D16801607047502080F31188BFF34F8FA2
:1021E000BFF36F8FFEE70000240000206003002093
:1021F0001CB5264908780190FF20087008788DF8F2
:1022000000009DF800009DF8002000F0F0009042D2
:1022100007D0502080F31188BFF34F8FBFF36F8F2B
:10222000FEE79DF800001A4B00F0500018700720E0
:10223000986005E09DF8002052008DF80020401EB7
:102240009DF800201206F5D49860032807D050208E
:1022500080F31188BFF34F8FBFF36F8FFEE74FF40A
:1022600040709860019808700A48016841F4700154
:102270000160016841F070410160FFF7C5FE002078
:102280005860FDF74FFF00201CBD000000E400E097
:102290007800002020ED00E0F8B517460E46050056
:1022A00014D0DEB105FB06F04830FFF77DFD0400D9
:1022B0000AD0002084F8460004F148023B4631462B
:1022C00028460094FFF790FC2046F8BD502080F38C
:1022D0001188BFF34F8FBFF36F8FFEE70020E3E756
:1022E00070B50D46040025D0FFF72CFED4E90F2071
:1022F000216802FB001161600021A1632168A160D7
:102300000A46D4E90F01401E00FB0121E16021468D
:102310004FF0FF3001F8440F487004F110008DB108
:10232000FFF7DEFD04F12400FFF7DAFDFFF72AFED8
:10233000012070BD502080F31188BFF34F8FBFF391
:102340006F8FFEE721690029F0D000F007FB00281D
:10235000ECD004494FF080500860BFF34F8FBFF3BB
:102360006F8FE3E704ED00E02DE9FF4782B01D46E3
:102370008A464FF00008040003D0BAF1000F08D0DD
:1023800011E0502080F31188BFF34F8FBFF36F8FA0
:10239000FEE7206C38B1502080F31188BFF34F8FD7
:1023A000BFF36F8FFEE7022D0AD1E06B012807D043
:1023B000502080F31188BFF34F8FBFF36F8FFEE77C
:1023C00000F00EFA3F4F4FF000094FF0805648B929
:1023D000049838B1502080F31188BFF34F8FBFF3BA
:1023E0006F8FFEE7FFF7AEFDA06BE16B884207D36E
:1023F000022D05D00498D0B1B8F1000F1AD01EE01C
:102400002A4651462046FFF748FB616A19B104F19C
:10241000240000F0A3FA20B13E60BFF34F8FBFF35A
:102420006F8FFFF7AFFD012006B0BDE8F087FFF723
:10243000A9FD22E06846FFF749FE4FF00108FFF7CB
:10244000A1FDFFF79FFEFFF77DFD94F94400401CBE
:1024500001D184F8449094F94500401C01D184F8DE
:102460004590FFF78FFD04A9684600F027F930B1C9
:102470002046FFF763FC00F0ABFA0020D4E7FFF73B
:1024800061FDA06BE16B884213D1FFF77BFD04F186
:1024900010000499FFF728FE2046FFF74FFC00F0DC
:1024A00097FA00289ED13E60BFF34F8FBFF36F8F26
:1024B00098E7FFF767FD2046FFF740FC00F088FA39
:1024C00090E7000004ED00E02DE9F0471F4690463C
:1024D0008946040003D0B9F1000F08D011E0502064
:1024E00080F31188BFF34F8FBFF36F8FFEE7206C2F
:1024F00038B1502080F31188BFF34F8FBFF36F8F37
:10250000FEE7022F0AD1E06B012807D0502080F3AC
:102510001188BFF34F8FBFF36F8FFEE7FFF786FD84
:102520005020EFF3118680F31188BFF34F8FBFF374
:102530006F8FA06BE16B884206D3022F04D000207E
:1025400086F31188BDE8F08794F945503A4649462C
:102550002046FFF7A2FA681C04D06D1C84F8455091
:102560000120EDE7606A0028FAD004F1240000F0B1
:10257000F5F90028F4D0B8F1000FF1D00121C8F826
:102580000010EDE72DE9F747002683B08A460400E6
:1025900003D0BAF1000F08D011E0502080F3118869
:1025A000BFF34F8FBFF36F8FFEE7206C38B1502021
:1025B00080F31188BFF34F8FBFF36F8FFEE700F0FA
:1025C0000FF9DFF8F4804FF000094FF0805748B959
:1025D000059838B1502080F31188BFF34F8FBFF3B7
:1025E0006F8FFEE7FFF7AEFCA56BC5B151462046E5
:1025F000FFF740FA6D1EA563206950B104F1100089
:1026000000F0ACF928B1C8F80070BFF34F8FBFF3EA
:102610006F8FFFF7B7FC012006B0BDE8F087059883
:1026200008B11EB106E0FFF7ADFC27E06846FFF7F2
:102630004DFD0126FFF7A6FCFFF7A4FDFFF782FC86
:1026400094F94400401C01D184F8449094F9450069
:10265000401C01D184F84590FFF794FC05A9684619
:1026600000F02CF8002820460AD0FFF767FB00F0A6
:10267000AFF92046FFF730FB0028B3D00020CBE7AE
:10268000FFF72AFB90B104F124000599FFF72CFD18
:102690002046FFF753FB00F09BF90028A2D1C8F8B1
:1026A0000070BFF34F8FBFF36F8F9BE72046FFF79C
:1026B00045FB00F08DF995E704ED00E02DE9F041D0
:1026C0000C46050011D0C4B1FFF73CFC174B5A690A
:1026D0006E682068911B471C17D02F689B6A9F4229
:1026E00019D0964217D8012410E0502080F31188A9
:1026F000BFF34F8FBFF36F8FFEE7502080F3118839
:10270000BFF34F8FBFF36F8FFEE70024FFF73AFC54
:102710002046BDE8F081884205D9401A206028464D
:10272000FFF7D4FCF1E700202060DCE72400002064
:102730002DE9FF5F8346DDE90E87994616468A46F6
:102740009000FFF731FB05001CD05420FFF72CFB55
:10275000040014D00020256384F85100CDE9024024
:10276000CDE900874B46324651465846FFF747FAB7
:102770002046FFF717F9012004B0BDE8F09F284676
:10278000FFF714FC4FF0FF30F6E7F0B585B0DDE958
:102790000B640A9DA6B1DCB154270097266302267C
:1027A00084F85160002604AFCDE90246CDE9005718
:1027B000FFF725FA2046FFF7F5F8049805B0F0BDBD
:1027C000502080F31188BFF34F8FBFF36F8FFEE768
:1027D000502080F31188BFF34F8FBFF36F8FFEE758
:1027E0000548C16919B1806B18B1002070470120FC
:1027F0007047022070470000240000202DE9F041BE
:102800002E4C0027A06B40B1206A401C2062606AF9
:1028100000B101273846BDE8F0816669761C666123
:1028200013D16068006838B1502080F31188BFF37D
:102830004F8FBFF36F8FFEE76068A1686160A06093
:10284000A06A401CA062FFF755FA206BDFF8708089
:10285000864209D36068006880B16068C068C56856
:10286000686886420DD220632068C06A00EB800150
:1028700058F821000128CAD90127C8E74FF0FF30D6
:10288000F1E7281DFFF70EFBA86A18B105F1180043
:10289000FFF708FBE86A0121A26981401143A161A9
:1028A00000EB800108EB8100291DFFF73FFBE86A80
:1028B0002168C96A8842CDD30127CBE724000020D4
:1028C0006003002070B504004FF0000140D0214D9E
:1028D0002868844207D0502080F31188BFF34F8FBF
:1028E000BFF36F8FFEE7A06C38B1401EA064636C2D
:1028F000E26A9A422CD040B12AE0502080F311883D
:10290000BFF34F8FBFF36F8FFEE7201DFFF7CAFAAB
:10291000114A012150B9E06A00EB800352F82330DC
:1029200023B9AB6901FA00F08343AB61606CE062EC
:10293000C0F10700A061E06AAB6981401943A96159
:1029400000EB800002EB8000211DFFF7EFFA012170
:10295000084670BD24000020600300202DE9F041EE
:10296000C068C468ACB104F118000746FFF79AFAD2
:10297000154DA86B0126A0B139461448FFF7D6FAC9
:10298000E06A2968C96A88421CD901206E62BDE8E4
:10299000F081502080F31188BFF34F8FBFF36F8F0A
:1029A000FEE7201DFFF77EFAE16AAA6906FA01F048
:1029B0001043A86101EB81000449B43901EB8000A8
:1029C000211DDBE70020E2E72400002014040020A2
:1029D0002DE9F0472C4D00242746A86B38B1FFF7AE
:1029E000B1FAA86B401EA863A86B40B146E0502026
:1029F00080F31188BFF34F8FBFF36F8FFEE7296914
:102A0000224E0120D1B3A6F1B40980463068E8B166
:102A1000F068C46804F11800FFF744FA201DFFF7BE
:102A200041FAE06AAA6908FA00F11143A96100EBD2
:102A3000800109EB8100211DFFF778FAE06A29681F
:102A4000C96A8842E2D3C5F82480DFE70CB1FFF7FA
:102A500051F92C6A44B14646FFF7D0FE00B16E62D0
:102A6000641EF9D100202862686A38B1084901273C
:102A700038070860BFF34F8FBFF36F8FFFF782FAFD
:102A80003846BDE8F0870000240000201404002030
:102A900004ED00E047756920717565756520485043
:102AA00054205441534B0D00000000000000000072
:102AB0000000000000000000000000000000000016
:102AC0000000000000000000000000000000000006
:102AD00000000000000000000000000000000000F6
:102AE00000000000000000000000000000000000E6
:102AF00000000000000000004C6F69206B68692036
:102B00006775692071756575650D0000000000002E
:102B100000000000000000000000000000000000B5
:102B200000000000000000000000000000000000A5
:102B30000000000000000000000000000000000095
:102B40000000000000000000000000000000000085
:102B50000000000000000000000000004775692030
:102B60007175657565204D5054205441534B0D00CF
:102B70000000000000000000000000000000000055
:102B80000000000000000000000000000000000045
:102B90000000000000000000000000000000000035
:102BA0000000000000000000000000000000000025
:102BB0000000000000000000000000000000000015
:102BC0004C6F69206B686920677569207175657540
:102BD000650D000000000000000000000000000083
:102BE00000000000000000000000000000000000E5
:102BF00000000000000000000000000000000000D5
:102C000000000000000000000000000000000000C4
:102C100000000000000000000000000000000000B4
:102C2000000000004E68616E207175657565207446
:102C300068616E6820636F6E670D20000000000001
:102C40000000000000000000000000000000000084
:102C50000000000000000000000000000000000074
:102C60000000000000000000000000000000000064
:102C70000000000000000000000000000000000054
:102C800000000000000000004C6F69206B686920A4
:102C90006E68616E2071756575650D00000000003D
:102CA0000000000000000000000000000000000024
:102CB0000000000000000000000000000000000014
:102CC0000000000000000000000000000000000004
:102CD00000000000000000000000000000000000F4
:102CE00000000000000000000000000000000000E4
:102CF00000000000010203040607080900000000AC
:102D000001020304242D00080000002084000000BC
:102D100074160008A82D000884000020CC130000C1
:102D20008416000800000000000000000000000001
:102D30000000000000000000010000001000000082
:102D4000000000000024F40000000000000000006B
:102D50000000000000000000000000000000000073
:102D60000000000000000000000000000000000063
:102D70000000000000000000000000000000000053
:102D80000000000000000000000000000000000043
:102D90000000000000000000000000000000000033
:082DA000AAAAAAAA0000000083
:04000005080000ED02
:00000001FF
